:045000006F50D0120B
:10500400005000000000000024970000A899000050
:10501400000000002AA900000000000000000000B9
:105024002AA900002AA900000000000000000000D6
:105034002AA90000000000002AA9000000000000C6
:105044002AA900002AA900002AA900002AA9000010
:105054002AA900002AA900002AA900002AA9000000
:105064002AA900002AA900000A9100002AA9000028
:105074002AA900002AA900002AA900002AA90000E0
:105084002AA900002AA900002AA900002AA90000D0
:105094002AA900002AA900002AA900002AA90000C0
:1050A4002AA900002AA900002AA900002AA90000B0
:1050B4002C9700002AA900002AA900002AA90000B0
:1050C4002AA900002AA900002AA900005A92000077
:1050D4002AA900002AA900002AA900002AA9000080
:1050E4002AA900002AA900002AA900002AA9000070
:1050F4002AA900002AA900002AA900002AA9000060
:10510400000000002AA900002AA900002AA9000022
:105114002AA900002AA900002AA900002AA900003F
:105124002AA900002AA900002AA900002AA900002F
:105134002AA900002AA900002AA900002AA900001F
:105144002AA900002AA900002AA900002AA900000F
:105154002AA90000EE6200002AA900002AA9000082
:105164002AA900002AA900002AA900002AA90000EF
:105174002AA900002AA900002AA900002AA90000DF
:105184002AA900002AA900002AA900002AA90000CF
:105194002AA900002AA900002AA900002AA90000BF
:1051A40000000000000000000000000000000000FB
:0C51B400000000000000000000000000EF
:1051C0003D432A876373C3029377F700BDEFADE5D4
:1051D000937606FF3D8ABA960CC34CC30CC74CC7E6
:1051E0004107E36BD7FE11E28280B306C3408A0613
:1051F0009702000096966780A6002307B700A306D3
:10520000B7002306B700A305B7002305B700A30422
:10521000B7002304B700A303B7002303B700A3021A
:10522000B7002302B700A301B7002301B700A30012
:10523000B7002300B700828093F5F50F93968500A1
:10524000D58D93960501D58D61B79396270097026A
:10525000000096968682E78086FA9680C1171D8F99
:105260003E96E374C3F8A5B7411122C60008B717EC
:105270000240D843B7170240719BD8C3B71702400A
:10528000D843B717024013671700D8C30100B717F8
:105290000240DC4313F7C7009147E31AF7FEB71744
:1052A00002409443B7170240370700FF7D17758F00
:1052B00098C30100B71702409843B7070002F98F5F
:1052C000F5FBB7170240D443B71702403707C1FFB9
:1052D0007D17758FD8C3B7170240D443B717024064
:1052E00037071100558FD8C3B71702409443B7173B
:1052F000024037070001558F98C30100B7170240DD
:105300009843B7070002F98FF5DBB7170240D8437F
:10531000B7170240719BD8C3B7170240D843B717DD
:10532000024013672700D8C30100B7170240DC43CF
:1053300013F7C700A147E31AF7FEB7070020377736
:10534000DC02130707C023AAE7120100324441011F
:105350008280411122C60008B7170240D843B71710
:105360000240719BD8C3B7170240D843B717024019
:1053700013671700D8C30100B7170240DC4313F7C7
:10538000C7009147E31AF7FEB71702409443B717D7
:105390000240370700FF7D17758F98C30100B717CC
:1053A00002409843B7070002F98FF5FBB717024098
:1053B000D443B71702403707C1FF7D17758FD8C395
:1053C000B7170240D443B71702404167558FD8C37F
:1053D000B71702409443B717024037070001558FB3
:1053E00098C30100B71702409843B7070002F98F2E
:1053F000F5DBB7170240D843B7170240719BD8C3FB
:10540000B7170240D843B717024013672700D8C325
:105410000100B7170240DC4313F7C700A147E31AA6
:10542000F7FEB7070020374795081307074023AA60
:10543000E7120100324441018280397106DE22DC2C
:1054400080002326A4FC2324B4FC2322C4FC83274D
:1054500084FC2326F4FE81A08327C4FE1387470023
:105460002326E4FE9C43BE850325C4FCEF50D03EBA
:105470002322A4FE032744FE91476304F700F95753
:1054800029AA8327C4FC91072326F4FC832744FC24
:10549000F1172322F4FC032744FC8D4763F6E70051
:1054A0008327C4FC8D8BCDDB8327C4FE2324F4FE2D
:1054B00081A0832784FE138727002324E4FE9E23F4
:1054C000BE850325C4FCEF50D0432322A4FE03274E
:1054D00044FE91476304F700F557C1A08327C4FC3D
:1054E00089072326F4FC832744FCF9172322F4FCC4
:1054F000032744FC854763FAE7088327C4FC858BB0
:10550000CDDB61A08327C4FCF19B2320F4FE83271D
:1055100004FE9C43232EF4FC8327C4FC93F7F70F6F
:105520008D8B93F7F70F8E07A30DF4FC8347B4FD23
:105530001307F00FB317F70013C7F7FF8327C4FD56
:105540007D8F832784FE9C23BE868347B4FDB3975B
:10555000F600D98F232EF4FC8325C4FD032504FE19
:10556000EF50902F2322A4FE032744FE91476304AB
:10557000F700F1571DA08327C4FC85072326F4FC00
:10558000832784FE89072324F4FE832744FC1387A2
:10559000F7FF2322E4FCBDF781473E85F2506254B9
:1055A00021618280797106D622D40018AA872E87BD
:1055B000A30FF4FCBA87230FF4FCA30704FE1DA875
:1055C0008347F4FE1397470093878188B306F7005B
:1055D0000347F4FEB707080093871719BA97A20785
:1055E0004146BE853685EF70601D8347F4FE850712
:1055F000A307F4FE0347F4FE8947E3F3E7FC232403
:1056000004FE230604FE8347F4FD2304F4FE8347CF
:10561000E4FD2305F4FE9307800873B007800F10A4
:1056200000009931EF50701737950108EF50701B4B
:10563000930784FE1146BE8537950108FD3B23077D
:1056400004FE15A80347E4FEB7070800938717195F
:10565000BA97939687008347E4FE13974700938792
:105660008188BA974146BE853685C13B8347E4FEB3
:1056700085072307F4FE0347E4FE8947E3F4E7FCCC
:10568000EF505014F9319307800873A00780010090
:10569000B250225445618280797106D622D4001816
:1056A000AA87232CB4FC3287A30FF4FCBA87231EED
:1056B000F4FC0347F4FD894763EDE70E0357C4FD8F
:1056C000C14763EAE70E930784FE1146B7950108C8
:1056D0003E85EF70A00EA30704FE1DA88347F4FECD
:1056E0001397470093878188B306F7000347F4FEBA
:1056F000B707080093871719BA97A2074146BE85D6
:105700003685EF70A00B8347F4FE8507A307F4FEF0
:105710000347F4FE8947E3F3E7FC8347F4FD13975F
:10572000470093878188BA970357C4FD3A8683253B
:1057300084FD3E85EF7080089307800873B0078072
:105740000F1000001536EF50500537950108EF5047
:105750005009930784FE1146BE8537950108F1393B
:10576000230704FE15A80347E4FEB7070800938744
:105770001719BA97939687008347E4FE139747005B
:1057800093878188BA974146BE8536857D318347A8
:10579000E4FE85072307F4FE0347E4FE8947E3F4AC
:1057A000E7FCEF50300275369307800873A007803E
:1057B00021A0010011A00100B25022544561828055
:1057C000797106D622D40018AA87232CB4FC32871C
:1057D000A30FF4FCBA87231EF4FC0347F4FD8947AA
:1057E00063E6E7040357C4FDC14763E3E7040347E7
:1057F000F4FDB707080093871719BA97A207232665
:10580000F4FE0357C4FD9307001063F6E700930707
:105810000010231EF4FC8327C4FE0357C4FD3A8600
:10582000BE85032584FDEF60707921A0010011A0E1
:105830000100B2502254456182805D7186C6A2C4C7
:105840008008232404FEB79701089C432324F4FE18
:10585000034784FEA38EE1860347A4FE238FE186DF
:1058600083C7D18713F7F70F894763FDE704A38E3A
:105870000186814501453D33A38F0186232404FC25
:10588000232604FC232804FC232A04FC83C7F18775
:1058900093F7F70F2304F4FCA30704FE31A81307C2
:1058A00084FC8347F4FE2946BA853E85F533834759
:1058B000F4FE8507A307F4FE0347F4FE8947E3F0EF
:1058C000E7FE55A8232C04FC232E04FC232004FE11
:1058D000232204FE83C7D18793F7F70F130784FDB4
:1058E0000946BA853E85E93D034784FD9307900349
:1058F0006311F7060347A4FD93079003631BF704A6
:1059000083C7D18793F7F70F81453E856139A38F10
:105910000186232C04FA232E04FA232004FC2322DC
:1059200004FC230C04FA230704FE31A8130784FBAC
:105930008347E4FE2946BA853E85B93B8347E4FEAA
:1059400085072307F4FE0347E4FE8947E3F0E7FEFB
:105950001DA0034784FDA38FE18683C7E18713F76A
:10596000F70F85476319F70083C7D18793F7F70FC0
:1059700081453E850539B64026446161828001112A
:1059800006CE22CC0010232004FE232204FE232472
:1059900004FE232604FE83C7F18793F7F70F230045
:1059A000F4FE83C7D18793F7F70F130704FE294648
:1059B000BA853E85D5310100F2406244056182809E
:1059C000411122C6000883C7818193F7F70F93F72F
:1059D000F70713F7F70F238CE18083D741821397E2
:1059E00007014183930700106312F706B73702409F
:1059F00093870740FC2313F7F70FB73702409387CD
:105A00000740719B1377F70FF8A3B73702409387CE
:105A10000740FC2313F7F70FB7370240938707407F
:105A2000136727001377F70FF8A3B7370240938760
:105A300007409C2313F7F70FB737024093870740BF
:105A4000136707F81377F70F98A371A483D74182E0
:105A5000139707014183930700206312F706B737B6
:105A6000024093870740FC2313F7F70FB737024034
:105A700093870740719B1377F70FF8A3B73702405E
:105A800093870740FC2313F7F70FB737024093873C
:105A90000740136737001377F70FF8A3B7370240B3
:105AA000938707409C2313F7F70FB737024093877C
:105AB0000740136707F81377F70F98A329AC83D72C
:105AC0004182139707014183930700306316F7045F
:105AD000B737024093870740FC2313F7F70FB73718
:105AE000024093870740719B1377F70FF8A3B737EE
:105AF000024093870740A3810700B737024093878E
:105B000007400947A38DE70CB7370240938707404A
:105B10000947238DE70CC1A283D741821397070160
:105B20004183930700406318F71AB7370240938701
:105B30000740FC2313F7F70FB7370240938707405E
:105B4000719B1377F70FF8A3B7370240938707408D
:105B5000FC2313F7F70FB73702409387074013670B
:105B600017001377F70FF8A3B73702409387074062
:105B70009C2313F7F70FB73702409387074013674B
:105B800007F81377F70F98A3B737024093870740BA
:105B9000982B018B1367870098AB983B018B98BBC0
:105BA000B82B018B13674700B8ABB83B018BB8BB70
:105BB000B737024093870740D82B1377F70FD43BB2
:105BC00093F6F60FA206558FF42B93F6F60FC20646
:105BD000558FFC3B93F7F70FE207D98F3E87B73716
:105BE0000240938707401367F70F9375F70FD42B85
:105BF000818A3686AE86D18ED4AB9356870093F5D4
:105C0000F60FD43B818A3686AE86D18ED4BB9356AE
:105C1000070193F5F60FF42B818A3686AE86D18E76
:105C2000F4AB13568701F83B018BBA863287558F48
:105C3000F8BBB737024093870740370700201307A8
:105C400007009375F70F83C64706818A3686AE86AE
:105C5000D18E2382D7069356870093F5F60F83C61D
:105C60005706818A3686AE86D18EA382D706935692
:105C7000070193F5F60F83C66706818A3686AE86DE
:105C8000D18E2383D7061356870103C77706018B6E
:105C9000BA863287558FA383E706B73702409387CA
:105CA000074003C7470E018B136757032382E70E94
:105CB00003C7570E018BA382E70EB73702409387C5
:105CC0000740130700FD2380E70EB7370240938794
:105CD00007400947B8A701003244410182804111C1
:105CE00006C622C400080545EF50D0790145EF50A3
:105CF000F06D0545EF50D0690545EF50F070054552
:105D0000EF5050748545856713850780EF507052BA
:105D10000100B240224441018280011122CE0010D4
:105D2000B73702409387074037071C001307E70D7A
:105D300098CBB73702409387074013070004239C92
:105D4000E708B737024093870740130700202390E6
:105D5000E70AB737024093870740130700202392D2
:105D6000E70AB737024093870740130710042394CC
:105D7000E70AB73702409387074013070020239EA6
:105D8000E708B7370240938707401307002023989E
:105D9000E70AB73702409387074013070020239A8A
:105DA000E70AB737024093870740138781ABD8CF04
:105DB00083C7E18713F7F70F8547631CF700B737F1
:105DC0000240938707403717002013074726D8D390
:105DD00001A8B737024093870740138781CFD8D3F4
:105DE000B737024093870740138781AFB8D3B737DF
:105DF000024093870740138781EF98D7B737024057
:105E0000938707401387810FB8D7B737024093872E
:105E100007403717002013074726D8D7B737024067
:105E2000938707401387812FF8CFB73702409387B6
:105E300007401387814FB8DBB7370240938707408D
:105E40003717002013078702F8DBB7370240938724
:105E50000740239C070CB737024093870740094748
:105E6000238DE70CB737024093870740A38D070CBB
:105E7000B7370240938707402390070EB737024099
:105E80009387074009472381E70EB737024093877E
:105E90000740A381070EB73702409387074023923C
:105EA000070EB73702409387074009472383E70E61
:105EB000B737024093870740A383070EB7370240E6
:105EC000938707402394070EB73702409387074014
:105ED00009472385E70EB737024093870740A3851C
:105EE000070EB737024093870740239E070CB7374A
:105EF0000240938707400947238FE70CB7370240DA
:105F0000938707402398070EB737024093870740CF
:105F100009472389E70EB737024093870740239A42
:105F2000070EB7370240938707400947238BE70ED8
:105F3000A30704FE39A80347F4FEB7170020938790
:105F40008722BA97238007008347F4FE8507A307BB
:105F5000F4FE0347F4FEBD47E3FFE7FC0100724493
:105F600005618280797106D622D40018232EA4FC04
:105F70008327C4FDDDC3B737024093870740194725
:105F800098A32945EF600073B73702409387074015
:105F90009C2313F7F70FB7370240938707406D9B99
:105FA0001377F70F98A3B73702409387074041470D
:105FB00098B3B7370240938707401307900298A31E
:105FC000B73702409387074013077002B8A3B13375
:105FD000B7370240938707409C2313F7F70FB73773
:105FE000024093870740136707011377F70F98A3C1
:105FF000930750052326F4FE8327C4FEFD8B054737
:10600000B316F70037E700E08327C4FE9583938734
:1060100007048A07BA9794C3B1A0B73702409387A1
:106020000740194798A32945EF60C068B737024079
:106030009387074023800700930750052324F4FE2D
:10604000832784FEFD8B0547B316F70037E700E092
:10605000832784FE9583938707068A07BA9794C39C
:106060000F1000000100B250225445618280797106
:1060700006D622D40018AA87232CB4FC3687A30F97
:10608000F4FCB287231EF4FCBA87230FF4FC834789
:10609000F4FD638807240347F4FDBD4763E3E72469
:1060A000B7370240938707409C4BA307F4FE834712
:1060B000F4FE0347F4FD85463397E600420741832B
:1060C000F98F638E07200347F4FDB71700209387ED
:1060D0008722BA979C2393F7F70F858B639F071E40
:1060E000B7370240938707409C4F2307F4FE83474E
:1060F000E4FE0347F4FD85463397E60042074183FB
:10610000F98FE5C78347F4FE0347F4FD4107854651
:106110003397E60042074183F98FF1E78347F4FDA7
:10612000FD1713972700B73702409387E74DBA97BB
:106130009C23A306F4FE8347E4FD9DEF8347D4FE32
:10614000A18B91EF0347F4FDB7970010938767D1B8
:10615000BA978A073E87832784FD1CC3E5A00347BF
:10616000F4FDB7970010938777D0BA978A073E87D8
:10617000832784FD1CC3F9A00347E4FD8547631210
:10618000F7068347D4FEA18B9DE70347F4FDB7973D
:106190000010938767D1BA978A079843B707002002
:1061A000BA973E878357C4FD3E86832584FD3A8592
:1061B000EF60C06041A80347F4FDB79700109387D4
:1061C00077D0BA978A079843B7070020BA973E87D7
:1061D0008357C4FD3E86832584FD3A85EF60005ECB
:1061E00095A0854701A28547F5A88347E4FD91EF77
:1061F0000347F4FDB7970010938767D1BA978A07D2
:106200003E87832784FD1CC335A80347E4FD8547EB
:106210006318F7020347F4FDB7970010938767D11F
:10622000BA978A079843B7070020BA973E878357E3
:10623000C4FD3E86832584FD3A85EF60205819A071
:1062400085474DA00347F4FDB717002093878722A9
:10625000BA979C2393F7F70F8346F4FD93E7170053
:1062600013F7F70FB717002093878722B69798A3E5
:106270000347F4FDB7970010938767D3BA978A074F
:106280003E878357C4FD1EA38347F4FDFD17139774
:106290002700B73702409387E74DBA979C2393F7BF
:1062A000F70F0347F4FD7D17931627003737024099
:1062B0001307E74D3697F19B93F7F70F1CA303479E
:1062C000F4FD7D1793162700373702401307E74D7B
:1062D00036971CA30100814731A0854721A085473F
:1062E00011A085473E85B25022544561828001113C
:1062F00022CE0010B737024093870740BC27230502
:10630000F4FEB737024093870740BC37A304F4FE7E
:106310008347A4FE898BE38E0718834794FE93F787
:1063200007034147E38EE716130700026386E70081
:10633000638B07406F00F016834794FE93F7F703D3
:1063400081171D47636DF73E13972700B567938745
:106350000787BA979C43828783D76182C207C1832C
:1063600081EBB7370240938707402147A38DE70CA5
:1063700083C7118293F7F70F93F70706E1EB83C703
:10638000018293F7F70F15476381E70A194763986E
:10639000E70A83D761821397070141839307F003CC
:1063A00063E7E70083D76182C207C18319A093071F
:1063B00000042316F4FE83A7C1810357C4FE3A8666
:1063C000BE85138581ABEF60603F83D761821397F1
:1063D000070141838357C4FEB307F74013970701B2
:1063E00041832393E18203A7C1818357C4FE3E9773
:1063F00023AEE180B7370240938707400357C4FEBE
:10640000239CE70CB73702409387074083C7A70D4B
:1064100013F7F70FB73702409387074013478700FA
:106420001377F70F238DE70C15A0B737024093873A
:10643000074003C791821377F70FB8B301A8B737A6
:10644000024093870740239C070C010083C781818A
:1064500093F7F70FE207E18763D5072EEFF04FD6EA
:10646000CDA4B73702409387074083C7270E93F721
:10647000F70FE207E187F19BE207E18793E7270047
:10648000139787016187B7370240938707401377D7
:10649000F70F2381E70EB73702409387074083C782
:1064A000270E13F7F70FB7370240938707401347BC
:1064B00087001377F70F2381E70EB7170020938724
:1064C0008722BC2393F7F70FF99B13F7F70FB71742
:1064D000002093878722B8A3B717002093878723CC
:1064E000238C070085A4B73702409387074083C7F2
:1064F000670E93F7F70FE207E187F19BE207E18769
:1065000093E72700139787016187B7370240938786
:1065100007401377F70F2383E70EB73702409387BF
:10652000074083C7670E13F7F70FB737024093870B
:106530000740134787001377F70F2383E70EB7173A
:10654000002093878722BC3393F7F70FF99B13F74B
:10655000F70FB717002093878722B8B3E5A2B737A4
:1065600002409387074083C7A70E93F7F70FE20710
:10657000E187F19BE207E18793E727001397870103
:106580006187B7370240938707401377F70F23855A
:10659000E70EB73702409387074083C7A70E13F76C
:1065A000F70FB737024093870740134787001377E9
:1065B000F70F2385E70EB717002093878722DC2388
:1065C00093F7F70FF99B13F7F70FB717002093878F
:1065D0008722D8A385AAB73702409387074083C78D
:1065E000E70D93F7F70FE207E187F19BE207E187F9
:1065F00093E72700139787016187B7370240938796
:1066000007401377F70F238FE70CB73702409387C4
:10661000074083C7E70D13F7F70FB737024093879B
:106620000740134787001377F70F238FE70CB7173F
:106630000020938787229C3393F7F70FF99B13F77A
:10664000F70FB71700209387872298B3E5A8B737CD
:1066500002409387074083C7270F93F7F70FE2079E
:10666000E187F19BE207E18793E727001397870112
:106670006187B7370240938707401377F70F238965
:10668000E70EB73702409387074083C7270F13F7FA
:10669000F70FB737024093870740134787001377F8
:1066A000F70F2389E70EB717002093878722FC2373
:1066B00093F7F70FF99B13F7F70FB717002093879E
:1066C0008722F8A341A0B73702409387074083C7CA
:1066D000670F93F7F70FE207E187F19BE207E18786
:1066E00093E72700139787016187B73702409387A5
:1066F00007401377F70F238BE70EB73702409387D6
:10670000074083C7670F13F7F70FB7370240938728
:106710000740134787001377F70F238BE70EB71750
:10672000002093878722FC3393F7F70FF99B13F729
:10673000F70FB717002093878722F8B321A0010035
:106740008DA30100B9AB834794FE93F7F703094784
:10675000638AE72011476386E734639B0752B737A4
:10676000024093870740D8271377F70FDC3793F75A
:10677000F70FA207D98F2316F4FE834794FE93F7F1
:106780000704638B075083C7118293F7F70F93F7C2
:1067900007066385071A2393018283C7018213F7D3
:1067A000F70F930700026314F70E03C781ABB71707
:1067B000002093878723F8AF938781AB9833B7176F
:1067C000002093878723F8BF938781ABB823B7173F
:1067D0000020938787232380E702938781ABB83318
:1067E000B717002093878723A380E702938781ABA5
:1067F000D823B7170020938787232381E702938745
:1068000081ABD833B717002093878723A381E70292
:10681000938781ABF823B7170020938787232382C0
:10682000E702B7170020938787237947A382E702FF
:1068300083C781AB2322F4FE938781AB9C33A207ED
:10684000032744FEBA972322F4FE938781ABBC232F
:10685000C207032744FEBA972322F4FE938781AB35
:10686000BC33E207032744FEBA972322F4FEB7178E
:10687000002093878723FC3313F7F70FB717002007
:1068800093878723A382E702EF10D01D45A883C713
:10689000018213F7F70FA5476312F70A83D7218305
:1068A000C207C1833E87B70700209387871E3E97A4
:1068B0008357C4FE3E86938581AB3A85EF501070B6
:1068C00083D761821397070141838357C4FEB307BF
:1068D000F7401397070141832393E18283D72183F4
:1068E0001397070141838357C4FEBA971397070193
:1068F00041832399E182B73702409387074083C7DA
:10690000B70D13F7F70FB7370240938707401347C8
:1069100087001377F70FA38DE70CB73702409387F3
:10692000074083C7B70D13F7F70FB73702409387B8
:106930000740618B1377F70FA38DE70C83D7618234
:10694000C207C183639A0734B73702409387074071
:10695000239C070CB7370240938707402147238DBC
:10696000E70C1DAEB73702409387074083C7370E49
:1069700013F7F70FB7370240938707401347870095
:106980001377F70FA381E70E83C7E18713F7F70F9C
:106990008547631CF70E83C74184A301F4FE83C7B8
:1069A000418493F7F70F139707014183239EE182F8
:1069B0009387C183BC3393F7F70F6390070EB73704
:1069C000024093870740DE27C207C18313F7F70F02
:1069D0009387C183B8A39387C1830547B8B383471F
:1069E00034FE138717009357F741FD833E97058BBD
:1069F000B307F74013F7F70F2382E18483C741847D
:106A000093F7F70F13979700B71700209387472640
:106A10003E97B737024093870740D8D383C7718426
:106A200093F7F70F850713F7F70FA383E18483C765
:106A3000718413F7F70F854763F3E706B737024012
:106A40009387074083C7370E13F7F70FB737024016
:106A500093870740719B1377F70FA381E70EB73732
:106A600002409387074083C7370E13F7F70FB737F6
:106A7000024093870740136727001377F70FA3811E
:106A8000E70E05472384E18419ACB73702409387AA
:106A90000740138781CFD8D319A4010009A40100AE
:106AA000FDAAB73702409387074083C7B70E13F795
:106AB000F70FB737024093870740134787001377D4
:106AC000F70FA385E70EB737024093870740DE270D
:106AD0002316F4FE83C7518493F7F70F139797009B
:106AE000B7170020938747263E97B7370240938712
:106AF0000740DE27C207C183BE853A85EF20704C70
:106B0000AA87638D071883C751842301F4FE83C7C6
:106B1000518493F7F70F1397070141839387C1833C
:106B2000DAA39387C183FC3393F7F70F639E0714AF
:106B3000A30504FEB9A883C7518493F7F70F1397F1
:106B400097008347B4FE3E97B717002093874726E8
:106B5000BA97982383C7518413F6F70FB287A60715
:106B600093867700B717002093874726B6979C2314
:106B7000B286A6069D06BA9713F7F70FB71700203F
:106B800093874726B69798A38347B4FE8507A30546
:106B9000F4FE0347B4FE9947E3FFE7F883C7518447
:106BA00093F7F70F13979700B7170020938747269F
:106BB0003E97B737024093870740DE27C207C1835D
:106BC000BE853A85EF00907AAA8713F7F70F93876F
:106BD000C183F8A39387C1830947F8B3834724FE91
:106BE000138717009357F741FD833E97058BB30733
:106BF000F74013F7F70FA382E18483C7518493F71B
:106C0000F70F13979700B7170020938747263E97F3
:106C1000B737024093870740D8D783C7718493F76B
:106C2000F70F850713F7F70FA383E18483C77184F8
:106C300013F7F70F854763FBE704B73702409387E5
:106C4000074083C7B70E13F7F70FB7370240938794
:106C50000740719B1377F70FA385E70EB737024004
:106C60009387074083C7B70E13F7F70FB737024074
:106C700093870740136727001377F70FA385E70E65
:106C80000547A384E18421A8010011A8010001A8FF
:106C9000FD57A307F4FE21A0010021A0010011A0CF
:106CA0000100B7370240938707400947B8A76F0034
:106CB000D05C8347A4FE93F70702E38E0750B737F3
:106CC0000240938707402947238DE70CB7370240DE
:106CD000938707402947A38DE70C938781AB9823BF
:106CE000A380E182938781AB98332380E1829387ED
:106CF00081ABF823FC33A207D98F13970701418397
:106D00002393E182938781ABB823BC33A207D98F49
:106D10001397070141832391E182938781ABD823A5
:106D2000DC33A207D98F1397070141832392E182B5
:106D3000231604FEA30704FE83C7118293F7F70FFF
:106D400093F707066387071C83C7118293F7F70F32
:106D500093F70702638E071483C7018293F7F70F37
:106D6000130730026361F71413972700B567938701
:106D70000789BA979C438287371700201307672536
:106D800023AEE1809D472316F4FE3DAA239901829C
:106D900025AA83D74182C207C183ADE72399018227
:106DA00083D761821397070141839307F00363E759
:106DB000E70083D76182C207C18319A0930700044B
:106DC0002316F4FE83D72183C207C1833E87B7070A
:106DD00000209387871EBA970357C4FE3A86BE8564
:106DE000138581ABEF50901D83D721831397070143
:106DF00041838357C4FEBA971397070141832399B0
:106E0000E182D9A0FD57A307F4FE7DA883D7418274
:106E1000C207C18389EF83D72182C207C183A183BF
:106E2000C207C18313F7F70FA387E18271A8FD574B
:106E3000A307F4FE51A883D74182C207C18391EB17
:106E400083D72182C207C18313F7F70F2388E1821A
:106E5000A5A8FD57A307F4FE85A883D74182C207E2
:106E6000C18399EB83C7F18213F7F70F238CE1AA53
:106E700085472316F4FE89A8FD57A307F4FEA9A0B1
:106E800083D74182C207C18399EB83C7018313F77C
:106E9000F70F238CE1AA85472316F4FE35A0FD5792
:106EA000A307F4FE15A0FD57A307F4FE010029A8CF
:106EB00083C7118293F7F70F93F7070491E7FD5704
:106EC000A307F4FE11A0010083D761821397070185
:106ED00041839307F00363E7E70083D76182C2072A
:106EE000C18319A0930700042316F4FE83A7C18170
:106EF0000357C4FE3A86BE85138581ABEF50100C54
:106F000003A7C1818357C4FE3E9723AEE1806F0083
:106F1000B01E83C7018293F7F70F2D47E361F71C7B
:106F200013972700B56793870792BA979C43828788
:106F300083D72182C207C183A183C207C18393F78C
:106F4000F70F13072002636EF73013972700B5671A
:106F500093870795BA979C438287370700201307CA
:106F6000870323AEE180B707002083C7870323167A
:106F7000F4FE19A6B7370240938707409C2793F782
:106F8000F70F13F737008547631AF7000547238685
:106F9000E182130700202395E18239A02386018234
:106FA000130700042395E18283C7C18213F7F70F0B
:106FB0008547631CF72A35671307C79D23AEE18019
:106FC000B5679387C79DBC23139707014183B567B6
:106FD0009387C79DBC33C207C183A207C207C18381
:106FE000BA972316F4FE51A483C7C18213F7F70F93
:106FF0008547631EF72683D7418213970701418394
:107000008947631CF7003567130707AE23AEE1809D
:10701000930740022316F4FE99AC83D7418213975D
:10702000070141838D47631CF7003567130747A9A4
:1070300023AEE1809307C0042316F4FE0DAC83D782
:10704000418213970701418391476302F72283D757
:1070500041821397070141839547631CF700356709
:10706000130747B023AEE1809307C0022316F4FE56
:10707000FDAA83D74182139707014183994763187B
:10708000F71E3567130707B323AEE180930750035C
:107090002316F4FEE9AA83D741821397070141839F
:1070A00089476312F70283C7C18213F7F70F854739
:1070B0006311F71C3567130707A323AEE180A547CB
:1070C0002316F4FE7DA283D74182139707014183E3
:1070D0008D47631BF7003567130777A423AEE18064
:1070E000A5472316F4FE71A283D7418213970701A7
:1070F00041839547631BF7003567130707A623AE47
:10710000E180A5472316F4FEADA283D741821397F1
:10711000070141839947631BF7003567130797A75A
:1071200023AEE180A5472316F4FEA1A2FD57A307D5
:10713000F4FE81A283D72182C207C18393F7F70FA0
:1071400005476387E70205476344F70089CB95A0AD
:107150000947638AE7020D476382E70499A813870A
:10716000C18023AEE18083C7C1802316F4FEB1A0A5
:107170003567130787B623AEE180B56783C787B647
:107180002316F4FE1DA835671307C7B723AEE180A9
:10719000B56783C7C7B72316F4FE05A03567130785
:1071A00047B923AEE180B56783C747B92316F4FE1C
:1071B00029A0FD57A307F4FE01007DA8356713073A
:1071C000C7BA23AEE180B56783C7C7BA2316F4FEFA
:1071D00065A0FD57A307F4FE45A083C7C18213F73E
:1071E000F70F85476309F70883C7C18293F7F70F45
:1071F000ADE7B5679387C79DBC233E87B567938787
:10720000C79DBC33C207C183A207C207C183BA9717
:10721000F9173E86B5679385E79DB707002013856C
:10722000E704EF50A059370700201307C70423AE27
:10723000E180B5679387C79DBC23139707014183FE
:10724000B5679387C79DBC33C207C183A207C20736
:10725000C183BA972316F4FE39A8FD57A307F4FE9D
:1072600019A8FD57A307F4FE01A8010031A00100F1
:1072700021A0010011A0010083D76182C207C18350
:107280000357C4FE6376F7000357C4FE2393E182DD
:1072900083D761821397070141839307F00363E764
:1072A000E70083D76182C207C18319A09307000456
:1072B0002316F4FE83A7C1810357C4FE3A86BE8518
:1072C000138581ABEF50804F03A7C1818357C4FE64
:1072D0003E9723AEE1800DA583D72182C207C183EB
:1072E00013F7F70FA384E18201AD83C7818213F7FF
:1072F000F70F238CE1AA83D761821397070141839B
:10730000854763F4E75E05472393E182F9AB83D7B2
:107310002182C207C18313F7F70F2384E182054757
:107320002387E182D1AB83C7118293F7F70FFD8BDF
:1073300085EB83D72182C207C18313F7F70F8547F7
:10734000631CF70083C7D18293F7F70FF99B13F7FC
:10735000F70FA386E1824DA3FD57A307F4FE69ABA7
:1073600083C7118293F7F70F13F7F7018947631A61
:10737000F70E83D72182C207C18393F7F70FF1EF8E
:1073800083D74182C207C18393F7F70F1307200801
:107390006382E70413072008634DF7001147638AEF
:1073A000E70613071008638DE7060947638CE702B9
:1073B00045A0130740086386E7041307400863CA23
:1073C000E702130760086385E706130770086389FF
:1073D000E706BDA8B73702409387074009472381D6
:1073E000E70E61A0B737024093870740A381070EDD
:1073F000ADA8B73702409387074009472383E70EBC
:10740000ADA0B73702409387074009472385E70EB1
:10741000A9A8B737024093870740A385070EB1A0FC
:10742000B7370240938707400947238FE70C35A8F9
:10743000B73702409387074009472389E70E35A0F5
:10744000B7370240938707400947238BE70E31A8DF
:10745000FD57A307F4FE010009A8FD57A307F4FE9A
:1074600061A9FD57A307F4FE41A979A183C7118241
:1074700093F7F70FFD8BC5EF83D72182C207C18336
:1074800013F7F70F85476318F702B5679387C79D12
:10749000FC3393F7070281CF83C7D18293F7F70FAD
:1074A00093E7170013F7F70FA386E18289A1FD5731
:1074B000A307F4FE2DA983D72182C207C18313F746
:1074C000F70F89476311F70683D7418213970701A6
:1074D000418393070010630DF70283D7418213970E
:1074E00007014183930700206304F70283D7418299
:1074F00013970701418393070030630BF70083D78D
:107500004182139707014183930700406311F73EBF
:1075100083C7818193F7F70F93E707F813F7F70F06
:10752000238CE180E9A6FD57A307F4FEC9A683C713
:10753000118293F7F70F13F7F70189476310F71AD2
:1075400083D72182C207C18393F7F70F6398071887
:1075500083D74182C207C18393F7F70F130720082F
:107560006382E70413072008634DF7001147638720
:10757000E70C130710086386E70E09476387E704E3
:1075800091AA130740086388E7081307400863C1FE
:10759000E706130760086389E70E1307700863881E
:1075A000E7100DAAB73702409387074083C7270E1D
:1075B00013F7F70FB7370240938707401367370079
:1075C0001377F70F2381E70E19AAB7370240938785
:1075D000074083C7370E13F7F70FB737024093877B
:1075E0000740136737001377F70FA381E70EC5A88D
:1075F000B73702409387074083C7670E13F7F70F2B
:10760000B737024093870740136737001377F70FA8
:107610002383E70EE9A0B73702409387074083C76B
:10762000A70E13F7F70FB73702409387074013678A
:1076300037001377F70F2385E70E55A0B7370240C1
:107640009387074083C7B70E13F7F70FB73702408A
:1076500093870740136737001377F70FA385E70E6B
:10766000BDA8B73702409387074083C7E70D13F7DC
:10767000F70FB73702409387074013673700137738
:10768000F70F238FE70CA1A8B73702409387074075
:1076900083C7270F13F7F70FB737024093870740C9
:1076A000136737001377F70F2389E70E0DA8B73755
:1076B00002409387074083C7670F13F7F70FB73769
:1076C000024093870740136737001377F70F238B28
:1076D000E70E31A0FD57A307F4FE11A0010001AC95
:1076E000238C01AA83D761821397070141838547C1
:1076F00063F1E72005472393E182E5AA238C01AAE1
:10770000938781ABA380070083C7118293F7F70F9C
:1077100013F7F70189476319F71683D74182C20728
:10772000C18393F7F70F130720086382E704130759
:107730002008634DF7001147638FE70A130710080D
:10774000638CE70C09476385E70415AA1307400813
:107750006382E7081307400863CDE7041307600856
:10776000638DE70C13077008638AE70E09AAB73721
:1077700002409387074083C7270E93F7F70F13F74D
:1077800037008D476312F7120547238CE1AA29AA17
:10779000B73702409387074083C7370E93F7F70F39
:1077A00013F737008D476313F7100547238CE1AAC1
:1077B000F5A8B73702409387074083C7670E93F752
:1077C000F70F13F737008D476314F70E0547238C27
:1077D000E1AAF9A8B73702409387074083C7A70EED
:1077E00093F7F70F13F737008D476315F70C05472D
:1077F000238CE1AAC1A0B73702409387074083C713
:10780000B70E93F7F70F13F737008D476316F70A94
:107810000547238CE1AA4DA0B73702409387074064
:1078200083C7E70D93F7F70F13F737008D476317FB
:10783000F7080547238CE1AA51A0B7370240938788
:10784000074083C7270F93F7F70F13F737008D47CC
:107850006318F7060547238CE1AA9DA0B7370240BD
:107860009387074083C7670F93F7F70F13F7370026
:107870008D476319F7040547238CE1AAA1A0FD57A2
:10788000A307F4FE010081A083C7118293F7F70FCD
:10789000FD8B95EB83C7D18293F7F70F858B85C757
:1078A0000947238CE1AA05A0010031A8010021A805
:1078B000010011A8010001A8010031A0010021A0D0
:1078C000010011A0010083D7618213970701418352
:1078D000894763F2E70209472393E18229A8FD570C
:1078E000A307F4FE11A8010001A8010031A00100C6
:1078F00021A0010011A001000347F4FE9307F00F3F
:107900006311F702B7370240938707402D47238D55
:10791000E70CB7370240938707402D47A38DE70C4C
:107920005DA083C7118293F7F70FE207E18763D267
:10793000070683D7618213970701418393070004E9
:1079400063E7E70083D76182C207C18319A0930769
:1079500000042316F4FE83D7618213970701418345
:107960008357C4FEB307F74013970701418323935E
:10797000E182B7370240938707400357C4FE239C38
:10798000E70CB7370240938707402147238DE70C68
:107990001DA883D76182C207C18399EFB737024020
:1079A00093870740239C070CB73702409387074013
:1079B0002147238DE70C01A8B73702409387074082
:1079C0002147A38DE70CB737024093870740130781
:1079D0000002B8A75DA08347A4FE858B9DCB2384BE
:1079E0000182A3840182A386018223870182B737A3
:1079F000024093870740A3810700EFE00FB20545DF
:107A0000EF004051B7370240938707400547B8A7BA
:107A1000ADA08347A4FE918BB1CBB73702409387CB
:107A200007401147B8A72945EF40D048B737024073
:107A3000938707409C3793F7F70F918B91CF83C7BC
:107A4000D18293F7F70F93E7270013F7F70FA38679
:107A5000E18283C7D18215A083C7D18293F7F70F44
:107A6000F59B13F7F70FA386E18201A8B737024011
:107A7000938707400347A4FEB8A70100724405613D
:107A800073002030011122CE0010AA872317F4FEC4
:107A90008357E4FE13F7F70FB70700209387870398
:107AA000B8A78357E4FEA183C207C18313F7F70F7A
:107AB000B707002093878703B8B7010072440561B8
:107AC0008280797122D60018232EA4FCAE87A30DE4
:107AD000F4FCFD572317F4FEA30604FEA5A8834774
:107AE000D4FE0327C4FDBA979C23A207139707016E
:107AF00041878317E4FEB98FC207C1872317F4FEBD
:107B0000230604FE35A88317E4FE63DF07008357CE
:107B1000E4FE860713970701418385679387170261
:107B2000B98FC207C18331A08357E4FE8607C2071D
:107B3000C1832317F4FE8347C4FE85072306F4FEA2
:107B40000347C4FE9D47E3F0E7FC8347D4FE850767
:107B5000A306F4FE0347D4FE8347B4FDE361F7F8C0
:107B60008357E4FE3E85325445618280797106D6A2
:107B700022D40018232EA4FCAE87231DF4FC23225C
:107B800004FE230404FE8327C4FD99E3814709AA68
:107B9000A30704FE3DA88347F4FEC207C1838507FF
:107BA000C207C1830357A4FD63FBE7028347F4FECA
:107BB00085070327C4FD3E978347F4FE18239306E9
:107BC00004FFB697238AE7FE8347F4FE8507A307E1
:107BD000F4FE0347F4FE9147E3FFE7FA11A001002A
:107BE000B5472307F4FE8327C4FD130750FA98A373
:107BF0008327C4FD85071307A00598A38327C4FD29
:107C00008907054798A38327C4FD8D07154798A3C7
:107C1000A30704FE25A00347F4FE8347F4FE910763
:107C20008326C4FDB697930604FF3697034747FFA4
:107C300098A38347F4FE8507A307F4FE0347F4FEE9
:107C40009147E3FAE7FC8327C4FD89079D453E85FC
:107C50008D3DAA872316F4FE8357C4FEA183139794
:107C6000070141838327C4FDA5071377F70F98A366
:107C70008327C4FDA9070357C4FE1377F70F98A302
:107C80008327C4FDAD071307A00598A38327C4FD70
:107C9000B107130750FA98A38347E4FEC207C183D4
:107CA0003E85B250225445618280411106C622C4ED
:107CB000000885452145EF30305C854537050400D7
:107CC000EF30F05F85450545EF30705F8545054530
:107CD000EF30305681473E85B240224441018280D8
:107CE000011106CE22CC0010232004FE232204FE24
:107CF000231404FE37050040EF408023930730062D
:107D00002312F4FEB707002003A74713B7470F005D
:107D100093870724B357F702C207C183FD17C20731
:107D2000C1832310F4FE231304FE231104FE9307E2
:107D300004FEBE8537050040EF4080368545370597
:107D40000040EF40005F0546854537050040EF40A5
:107D5000C0579307C0022326F4FE8327C4FEFD8B81
:107D60000547B316F70037E700E08327C4FE958385
:107D7000938707048A07BA9794C38545370500405F
:107D8000EF40A04F0100F2406244056182803971EA
:107D900006DE22DC80002326A4FCAE873287A30502
:107DA000F4FCBA872305F4FC232E04FC232004FEF4
:107DB000232204FE232404FE232804FC232A04FC9B
:107DC000232C04FC93050040B7170140138507C01E
:107DD000EF304074930700402318F4FC8D47232AAA
:107DE000F4FCC147232CF4FC930704FDBE85B717B0
:107DF0000140138507C0EF30204CB75700409387F0
:107E00000780DE27139707014183B7570040938708
:107E100007804D9B42074183DAA7856793870780D8
:107E20002318F4FC93078004232CF4FC930704FD2F
:107E3000BE85B7170140138507C0EF30E0479307B1
:107E400000402318F4FC8D47232AF4FCE147232C3F
:107E5000F4FC930704FDBE85B7170140138507C0E6
:107E6000EF3080458327C4FC232EF4FC231004FE4E
:107E70000347B4FC85476316F7008D672311F4FEB2
:107E800021A80347B4FC89476316F70089672311CB
:107E9000F4FE19A0231104FE0347A4FC8547631ACE
:107EA000F700930700602312F4FE85672310F4FEA9
:107EB00005A00347A4FC8947631AF7009307004015
:107EC0002312F4FE85672310F4FE19A0231204FE8A
:107ED000231404FEB1472313F4FE9307C4FDBE85AB
:107EE000B757004013850780EF40604793050004B3
:107EF000B757004013850780EF40A0748545B757FA
:107F0000004013850780EF40C0600100F2506254CA
:107F100021618280797122D60018AA87A30FF4FC10
:107F2000B7170020239C0722B717002093878723C9
:107F300023910700B7170020938787232392070018
:107F4000B71700209387872323830700B7170020E4
:107F5000938787237947F8B3B71700209387872340
:107F600023940700B71700209387872323950700E2
:107F7000B71700209387872323960700A30704FEE3
:107F800005A08347F4FE37170020130787238607D1
:107F9000BA97239707008347F4FE8507A307F4FEEB
:107FA0000347F4FE8547E3FEE7FCB71700209387FD
:107FB000872323890700B717002093878723239AF5
:107FC0000700B717002093878723239B0700B71765
:107FD000002093878723238C0700B71700209387FF
:107FE0008723239D0700B717002093878723238EBD
:107FF0000700B717002093878723A38E070023A6C7
:108000000184B707002005671307078023A8E7123C
:108010008347F4FDADC7B717002093878723238FCD
:108020000700B717002093878723130720FCF8BFAA
:10803000B71700209387872305472380E702B717E8
:10804000002093878723A3800702B7170020938718
:10805000872323810702B717002093878723A381F3
:108060000702B71700209387872321472382E7025F
:10807000B7170020938787237947A382E70201007F
:108080003254456182805D7186C6A2C48008AA8789
:10809000232CB4FA232AC4FAA30FF4FA232204FCF3
:1080A000232404FC232604FC232804FC232A04FCA8
:1080B000232C04FC232E04FC232004FE232204FE94
:1080C000232404FE232604FE8347F4FBB5EBB70705
:1080D00002401385C701EF20500EB7570040938729
:1080E00047802322F4FC832784FB2324F4FCC1472C
:1080F0002326F4FC832744FB2328F4FC232A04FCD6
:1081000093070008232CF4FC232E04FC232004FEF8
:10811000232204FE85672324F4FE232604FE93070E
:1081200044FCBE85B70702401385C701EF20103A13
:108130008545B70702401385C701EF20B04395A8D6
:10814000B707024013850703EF203007B7570040F9
:10815000938747802322F4FC832784FB2324F4FCA9
:10816000232604FC832744FB2328F4FC232A04FC55
:1081700093070008232CF4FC232E04FC232004FE88
:10818000930700022322F4FE85672324F4FE2326AE
:1081900004FE930744FCBE85B7070240138507031E
:1081A000EF20D0328545B707024013850703EF2043
:1081B000703C0100B640264461618280011106CE08
:1081C00022CC0010AA872324B4FE3687A307F4FE2E
:1081D000B2872307F4FEBA87A306F4FE014693058F
:1081E0000004B757004013850780EF4000388145F1
:1081F000B707024013850703EF20D0378145B70743
:1082000002401385C701EF20F0360347D4FE8347B1
:10821000E4FE3A86BE85032584FEEFF05FB7014693
:10822000B7170020938547260145B13D8567138622
:108230000780B7170020938547660545A935054691
:1082400093050004B757004013850780EF40E031E5
:108250008347F4FE3E85EFF0FFCB0100F24062441D
:1082600005618280011106CE22CC0010B7170020D4
:108270009387872383C7170293F7F70FE2073E8799
:10828000B71700209387872383C7070293F7F70F59
:10829000C207BA972326F4FEB717002093878723D7
:1082A000FC3F93F7F70FA2073E87B717002093878D
:1082B0008723FC2F93F7F70FBA970327C4FEBA97CB
:1082C0002326F4FEB71700209387872383C727024E
:1082D000A305F4FEB71700209387872383C73702CF
:1082E0002305F4FE0347A4FE8347B4FEBA863E8608
:1082F0008325C4FE0145D935B7370240938707402F
:108300003717002013074726D8D3B7370240938783
:10831000074083C7370E13F7F70FB737024093872D
:108320000740719B1377F70FA381E70EB737024021
:1083300013870740B7370240938707400347370E3C
:108340001377F70FA381E70E0100F2406244056145
:108350008280797122D60018AA87231FF4FCB717F0
:10836000002093878723BE23C207C1833E8783579C
:10837000E4FDBA972326F4FE0327C4FE9307F07F9B
:1083800063F8E7008327C4FE938707802326F4FE63
:10839000B7170020138747668327C4FEBA979C232C
:1083A0003E85325445618280011122CE0010AA8799
:1083B0002317F4FEB717002093878723DE23C20715
:1083C000C1830357E4FE63F9E700B71700209387E2
:1083D0008723DE232317F4FEB71700209387872314
:1083E000DE231397070141838357E4FEB307F74069
:1083F000139707014183B717002093878723DAA3D8
:10840000B717002093878723BE2313970701418363
:108410008357E4FEBA97139707014183B7170020EB
:1084200093878723BAA3B717002093878723BE2398
:108430001397070141839307F07F63F3E702B717B0
:10844000002093878723BE23C207C18393870780B9
:10845000139707014183B717002093878723BAA397
:108460000100724405618280797106D622D426D239
:108470000018B717002093878723DE23139707017F
:1084800041838D4763E4E700814741AA0145D13527
:10849000AA873E879307500A631AF7000545553DA2
:1084A000AA873E879307A0056304F7008147B5A21A
:1084B00009454535AA873E8789476304F700814708
:1084C000A9AA0D457935AA872307F4FE0347E4FEE0
:1084D00099476304F700814789A28347E4FEA10717
:1084E000A306F4FEB717002093878723DE23139794
:1084F000070141838347D4FEC207C1836374F70039
:10850000814721AAA30704FE2DA08347F4FEC207DA
:10851000C1838344F4FE3E852D3DAA873E879307A1
:1085200004FFA6972384E7FE8347F4FE8507A3078D
:10853000F4FE0347F4FE8347D4FEE368F7FC834769
:10854000D4FEF917130704FFBA9703C787FE9307F2
:10855000A005631EF7008347D4FEFD17130704FF31
:10856000BA9703C787FE9307500A6304F700814751
:108570006DA08347E4FE9107130704FFBA9783C7F2
:1085800087FEA2071397070141878347E4FE9507FB
:10859000930604FFB69783C787FEC207C187D98FAA
:1085A000C207C1872315F4FE8347E4FE890713F74A
:1085B000F70F930784FD8907BA853E85EFF06FD0EA
:1085C000AA872314F4FE8347D4FEC207C1833E85E5
:1085D000E13B0357A4FE835784FE6304F7008547FD
:1085E0002DA80347C4FD238AE1820347D4FDA38E4F
:1085F000E1860347E4FDA38AE1820347F4FD238B70
:10860000E182034704FEA38BE182034714FE238C1F
:10861000E1820547A38CE18285473E85B250225412
:10862000925445618280011106CE22CC0010B7170A
:10863000002093878723BC2B93F7F70F6388072CC1
:10864000B7570040938707809E23C207C18393F7E3
:1086500007046385073EB7570040938707801307D9
:10866000F0FB9AA3B757004093870780DE2B139740
:1086700007014183B7570040938707801377F7F7C7
:1086800042074183DAABB7170020938787232389FA
:10869000070083D721852317F4FE03D7018583576D
:1086A000E4FEBA971397070141832398E18483C7B7
:1086B0004185BE861387C18393972600BA97BC2352
:1086C00093F7F70F13970701418383D70185B3070A
:1086D000F7402316F4FE8357C4FECDCF8357C4FE64
:1086E00093960701C182130700206374D700930794
:1086F00000202315F4FE0357A4FE2399E18493057B
:108700000004B757004013850780EF309073814510
:10871000B70702401385C701EF20C06583C74185B5
:108720003E870A079387C183BA979E23C207C183F6
:10873000A60703D701853E97B717002093874726E2
:108740003E97B7070240F107D8C7B7070240F107C5
:108750000357A4FED8C38545B70702401385C70158
:10876000EF204061B757004093870780DE2B1397B7
:1087700007014183B75700409387078013670708B5
:1087800042074183DAABB717002093878723054759
:10879000B8AB75A483C74185BE861387C183939701
:1087A0002600BA97A381070083C741851387170066
:1087B0009357F741FD833E97058BB307F74013F7B7
:1087C000F70F2383E1842398018493075005232224
:1087D000F4FE832744FEFD8B0547B316F70037E709
:1087E00000E0832744FE9583938707068A07BA979C
:1087F00094C30F10000083C7718493F7F70FFD1720
:1088000013F7F70FA383E18483C74185138717000C
:108810009357F741FD833E97058BB307F74013F756
:10882000F70F238AE18483C7818413F7F70F854705
:10883000631AF70483C7718413F7F70F894763E35B
:10884000E704B73702409387074083C7370E13F713
:10885000F70FB737024093870740719B1377F70FE5
:10886000A381E70EB737024013870740B7370240AE
:10887000938707400347370E1377F70FA381E70E5F
:108880002384018483C7918413F7F70F8547631A04
:10889000F70483C7718413F7F70F894763E3E7048D
:1088A000B73702409387074083C7B70E13F7F70F18
:1088B000B737024093870740719B1377F70FA38563
:1088C000E70EB737024013870740B7370240938758
:1088D00007400347B70E1377F70FA385E70EA3846E
:1088E0000184930750052320F4FE832704FEFD8BAB
:1088F0000547B316F70037E700E0832704FE9583AA
:10890000938707048A07BA9794C30DAA83C7718413
:1089100093F7F70F8DE383C74185138717009357AC
:10892000F741FD833E97058BB307F74013F7F70F29
:10893000238AE18429A283C74185BE861387C18328
:1089400093972600BA97BC3393F7F70F8DE383C74D
:108950004185138717009357F741FD833E97058B99
:10896000B307F74013F7F70F238AE184C9A82398C8
:10897000018483C74185BE861387C18393972600F0
:10898000BA97BC2383C74185BE861387C18393975B
:108990002600BA97BC2393F7F70FC207C1832314AD
:1089A000F4FE035784FE2399E18493050004B7572E
:1089B000004013850780EF30D0488145B70702405B
:1089C0001385C701EF20003B83C741853E870A0717
:1089D0009387C183BA979E23C207C18313979700D9
:1089E000B7170020938747263E97B7070240F10745
:1089F000D8C7B7070240F107035784FED8C385459F
:108A0000B70702401385C701EF20C036B7570040B3
:108A100093870780DE2B139707014183B7570040E8
:108A2000938707801367070842074183DAABB717BC
:108A30000020938787230547B8AB11A00100F240BF
:108A4000624405618280397106DE22DC8000930772
:108A500050052320F4FE832704FEFD8B0547B31643
:108A6000F70037E700E0832704FE95839387070626
:108A70008A07BA9794C30F1000009307500523226A
:108A8000F4FE832744FEFD8B0547B316F70037E756
:108A900000E0832744FE9583938707068A07BA97E9
:108AA00094C30F100000B707024093870703D84311
:108AB00023A6E184B707002003A7071383A7C18477
:108AC0006300F70CB707002003A7071383A7C1842F
:108AD00063F2E702B707002083A707131397070184
:108AE000418383A7C184C207C183B307F74023171B
:108AF000F4FE05A883A7C184C207C18305671307D5
:108B00000780B307F7402317F4FEB707002083A7B9
:108B100007131397070141838357E4FEBA9723177E
:108B2000F4FE03A7C184B707002023A8E712B717F4
:108B3000002093878723DE23C207C1833E878357A4
:108B4000E4FE3E9785679387078063C5E702B71702
:108B5000002093878723DE231397070141838357E0
:108B6000E4FEBA97139707014183B7170020938754
:108B70008723DAA3B717002093878723238307006F
:108B800093075005232EF4FC8327C4FDFD8B054776
:108B9000B316F70037E700E08327C4FD958393877A
:108BA00007048A07BA9794C30100EFF0FF8BAA87E6
:108BB000EDFFB717002093878723DE23C207C18309
:108BC000638B0726B7170020938787239C2F93F783
:108BD000F70F63990722B717002093878723DE23B7
:108BE000C207C1832324F4FE231604FE032784FE58
:108BF0009307F01F63F7E700930700202316F4FEA6
:108C00002DA0B717002093878723FC2313F7F70FB6
:108C1000B717002093878723FC3393F7F70F63661A
:108C2000F700832784FE2316F4FE0357C4FEB7170C
:108C3000002093878723BE23C207C183BE86856732
:108C400093870780958F63D0E702B717002093873B
:108C50008723BE23C207C183056713070780B307B5
:108C6000F7402316F4FE8357C4FE6386071C930760
:108C700050052328F4FC832704FDFD8B0547B3161C
:108C8000F70037E700E0832704FD95839387070605
:108C90008A07BA9794C30F10000093075005232A40
:108CA000F4FC832744FDFD8B0547B316F70037E737
:108CB00000E0832744FD9583938707068A07BA97C8
:108CC00094C30F100000B717002093878723054730
:108CD00098AFB717002093878723239D0700B71706
:108CE000002093878723BE23C207C1833E87B7171F
:108CF0000020938747663E97B73702409387074027
:108D0000B8D3B7370240938707400357C4FE239078
:108D1000E70EB73702409387074083C7270E13F744
:108D2000F70FB737024093870740719B1377F70F10
:108D30002381E70EB737024013870740B737024059
:108D4000938707400347270E1377F70F2381E70E1A
:108D500093075005232CF4FC832784FDFD8B0547E6
:108D6000B316F70037E700E0832784FD95839387E8
:108D700007048A07BA9794C3B717002093878723FD
:108D8000DE231397070141838357C4FEB307F740DF
:108D9000139707014183B717002093878723DAA32E
:108DA000B717002093878723BE23139707014183BA
:108DB0008357C4FEBA97139707014183B717002062
:108DC00093878723BAA3B717002093878723BE23EF
:108DD0001397070141839307F07F63F8E700B71704
:108DE000002093878723239107000357C4FE93072E
:108DF00000206312F704B7170020938787230547E5
:108E0000D8AF15A8B717002093878723BE2F1397D5
:108E100007014183BD679387F7A563FEE700B71796
:108E2000002093878723238C0700B71700209387A0
:108E3000872223810700B717002093878723DC2F21
:108E400093F7F70F63840712B717002093878723E0
:108E50009C2F93F7F70F639B0710B717002093879A
:108E60008723BE2F1397070141839307702563FF64
:108E7000E70E930750052322F4FC832744FCFD8B67
:108E80000547B316F70037E700E0832744FC9583D6
:108E9000938707068A07BA9794C30F1000009307B9
:108EA00050052324F4FC832784FCFD8B0547B3166F
:108EB000F70037E700E0832784FC95839387070654
:108EC0008A07BA9794C30F100000B7170020938742
:108ED0008723054798AFB717002093878723239DE3
:108EE0000700B7370240938707402390070EB73734
:108EF00002409387074083C7270E13F7F70FB73752
:108F0000024093870740719B1377F70F2381E70E89
:108F1000B737024013870740B737024093870740AF
:108F20000347270E1377F70F2381E70EB7170020AB
:108F300093878723238C0700930750052326F4FC8F
:108F40008327C4FCFD8B0547B316F70037E700E025
:108F50008327C4FC9583938707048A07BA9794C331
:108F6000B717002093878723238E07000100F25054
:108F70006254216182805D7186C6A2C4800823226A
:108F800004FE232404FE232604FE232804FC232AB3
:108F900004FC232C04FC232E04FC231004FE2320B9
:108FA00004FC232204FC232404FC232604FC232C9D
:108FB00004FA232E04FA8545856713854700EF20C0
:108FC000B02BC1472312F4FE930780042326F4FE3E
:108FD000930744FEBE85B717014013850780EF2035
:108FE000A02D930700022312F4FE91472326F4FEDE
:108FF000930744FEBE85B717014013850780EF2015
:10900000A02B930700042312F4FEE1472326F4FE6D
:109010008D472324F4FE930744FEBE85B717014015
:1090200013850780EF204029930700082312F4FEE0
:1090300091472326F4FE930744FEBE85B7170140EF
:1090400013850780EF20402791450145EF20A04E72
:10905000C1472320F4FC232204FCC1472324F4FC51
:1090600085472326F4FC930704FC3E85EF109054BB
:10907000E947230CF4FA8547A30CF4FA230D04FA0C
:109080008547232EF4FA930784FB3E85EF20C054D6
:10909000231804FC231904FC231A04FC231B04FCDE
:1090A000231C04FC93070020231DF4FC231E04FC56
:1090B000231F04FC9D472310F4FE930704FDBE8587
:1090C00037350140EF20F03F854537350140EF202F
:1090D000104D05469305000637350140EF205051ED
:1090E00093073003230CF4FAA30C04FA230D04FABB
:1090F0008547232EF4FA930784FB3E85EF20C04D6D
:109100000100B640264461618280011122CE001028
:10911000A30704FE4145EF10F060AA87638A071297
:10912000C145B717014013850780EF20003BAA8790
:109130003E8785476310F7100547238CE18401467D
:109140009305000637350140EF20904A83D76185AB
:10915000139707014183A54763EDE704230704FE46
:109160002DA00347E4FEB7270020938747E6BA9770
:109170009C2313F7F70F8347F4FEBA97A307F4FE77
:109180008347E4FE85072307F4FE0347E4FE99477F
:10919000E3F9E7FCB7270020938747E6FC3393F712
:1091A000F70F0347F4FE6312F70A0547238DE184A6
:1091B00069A883D76185139707014183930720042A
:1091C00063F5E708A30604FE05A80347D4FE83461B
:1091D000D4FEB7270020938747E6BA979C2313F75E
:1091E000F70FB7270020938747F6B69798A38347D2
:1091F000D4FE8507A306F4FE0347D4FE93070004BC
:10920000E3F5E7FCB7270020938747E683C71704F9
:1092100013F7F70FA38DE184B7270020938747E664
:1092200083C7270413F7F70F238EE1840547238EA6
:10923000E18621A8239B0184238C018405469305A4
:10924000000637350140EF20B03A4145EF10F052AB
:1092500001007244056173002030011122CE00101C
:109260009305000637350140EF201043AA87A9C7B0
:1092700037350140EF209040AA87A307F4FE83D73B
:1092800061851397070141839307F00F63E6E702B7
:1092900083D76185C207C18313871700931607011F
:1092A000C182239BD1843E87B7270020938747E65E
:1092B000BA970347F4FE98A3010072440561730056
:1092C0002030797106D622D40018AA87A30FF4FCA7
:1092D000230604FE9307800873B007800F10000078
:1092E000B707002003A747102320E4FE1387471089
:1092F00058432322E4FE938747109C472324F4FE1F
:109300009307800873A00780A30704FE89A2034780
:10931000F4FD8347F4FEB357F740858BB337F00075
:109320002307F4FE8347E4FEB1CB0347F4FE9387A3
:109330000187BA979C2393C7170093F7F70F9DCF28
:109340008347F4FE8607130704FFBA9703C707FF96
:109350008347F4FE8607930604FFB69783C717FF7B
:109360001306C4FE8546BE853A8571220347F4FE86
:1093700093870187BA97054798A3E9A08347E4FE3E
:1093800093C7170093F7F70FB1C70347F4FE93870E
:109390000187BA979C239DCF8347F4FE8607130766
:1093A00004FFBA9703C707FF8347F4FE86079306B7
:1093B00004FFB69783C717FF1306C4FE8146BE8518
:1093C0003A85152A0347F4FE93870187BA972380CD
:1093D00007008DA88347E4FEB5C78347F4FE8607E0
:1093E000130704FFBA9783C707FF9583A306F4FE0C
:1093F0000347D4FE85476317F7048347F4FE8607C7
:10940000130704FFBA9703C717FF9547630CF702CA
:109410008347F4FE8607130704FFBA9783C717FF35
:109420003E878547B397E700139787016187834796
:10943000C4FEE207E187D98FE207E18793F7F70FD0
:109440002306F4FE8347F4FE8507A307F4FE0347D3
:10945000F4FE9547E3FDE7EA8347C4FE3E85B2503C
:10946000225445618280411106C622C4000883C788
:10947000A18693F7F70F05476386E7000947638ED8
:10948000E7003DA085460946938581861D45EFC0CE
:109490001FBE09472385E18621A885460946938595
:1094A00001811D45EFC0BFBC0D472385E18601004A
:1094B00083C7C18613F7F70F85476309F70083C792
:1094C000C18613F7F70F89476312F70285462146D5
:1094D000938501861945EFC09FB983C7C18613F7ED
:1094E000F70F89476314F700238601860100B24015
:1094F000224441018280797106D622D40018AA87BD
:10950000232CC4FC3687A30FF4FCAE87230FF4FC96
:10951000BA87A30EF4FC8347F4FD9583A307F4FEFA
:109520008347F4FE09476388E70809476346F70065
:109530000547638AE70069AA0D47638AE710114768
:109540006384E71471A28347D4FDA9C70347E4FDF0
:1095500095476316F7000547A38EE184BDA2034734
:10956000E4FD9D4763E3E716832784FD9C2313975F
:10957000870161878347E4FD8546B397F600E207DC
:10958000E187D98FE207E18713F7F70F832784FD7F
:1095900098A325AA0347E4FD95476308F7120347FC
:1095A000E4FD9D4763E3E7128347E4FDBE850325A1
:1095B00084FD252219AA8347D4FDB5C383C7B1868C
:1095C00093F7F70F639507100347E4FD9D4763E6A4
:1095D000E70283C781861397870161878347E4FD8C
:1095E0008546B397F600E207E187D98FE207E18766
:1095F00013F7F70F2384E18621A88347E4FDE117E1
:109600000547B317F70013F7F70F9387818698B3D1
:109610000547A385E18605472385E1864DA80347D5
:10962000E4FD9D4763E9E7008347E4FDBE851385BC
:109630008186652011A88347E4FDE11793F7F70FB2
:10964000BE85138591865128A385018649A083474D
:10965000D4FD8DC38347F4FDFD8B13F7F70F2380F3
:10966000E186938701860347E4FDB8A30547238677
:10967000E186B9A8238001869387018623810700AC
:1096800009472386E186A9A08347D4FD8DC32380A3
:109690000186938701861307B005B8A393870186D7
:1096A0000347E4FDB8B305472386E18615A0238070
:1096B0000186938701862381070093870186A38112
:1096C000070009472386E18621A0010011A00100BF
:1096D0000100B250225445618280011122CE001057
:1096E0002326A4FEAE87A305F4FE8327C4FE9C2395
:1096F0001397870161878347B4FE8546B397F600C9
:10970000E207E18793C7F7FFE207E187F98FE207F6
:10971000E18713F7F70F8327C4FE98A30100724473
:1097200005618280411122C6000801A0411122C6B4
:109730000008B717002093878723FC2393F7F70FC0
:10974000850713F7F70FB717002093878723F8A330
:10975000B717002013878723382F1377F70F9387C6
:109760008723BC3F93F7F70FA207D98FC207C183A6
:109770008507139707014183B71700209387872335
:109780009375F70FB42F818A3686AE86D18EB4AF2B
:109790002183131607014182B83F018BBA863287B5
:1097A000558FB8BF83A781871387170023ACE18645
:1097B000B707004079579AAB01003244410173006A
:1097C0002030011106CE22CC00102326A4FE232433
:1097D000B4FE8327C4FE85079823D1476313F70699
:1097E0008327C4FE890798238547631CF704EF107D
:1097F000D021B7870708138507F0EF107025B767EA
:10980000A55A938557AAB78707081385C7FFEF1096
:10981000B004B7270240944BB72702402167558F09
:1098200098CBB7270240984BB72702401367070829
:1098300098CBB7E700E03707EFBE13070708B8C7B4
:1098400001A08327C4FE85079823C5476319F70045
:109850008327C4FE8907982385476301F71483276C
:10986000C4FE85079823C547631EF7008327C4FEFF
:109870008907982389476317F7000947238EE186F4
:10988000814731AA8327C4FE850798239307E00FF9
:10989000631BF7000D47238EE1868327C4FEB823A0
:1098A000A38EE186E5A88327C4FE85079823D147C8
:1098B0006314F7028327C4FE890798238947631D31
:1098C000F7001307900C23ACE1860547238FE18650
:1098D0001547238EE186D9A08327C4FE85079823E8
:1098E000D1476310F7028327C4FE890798238D4769
:1098F0006319F7000547238FE186238E0186814790
:1099000079A88327C4FE85079823D947631DF702EA
:109910008327C4FE8907982393070008631FF70075
:109920008327C4FE89071307000498A30547A38F64
:10993000E1861147238EE18695A0A38F018611470A
:10994000238EE186A1A88327C4FE89079C23B9C77B
:109950008327C4FE85079823930710026310F7043A
:109960008327C4FE89079C23BE868327C4FEB833A1
:10997000B7070020860693874710B69798A38327DA
:10998000C4FE89079C23BE868327C4FED823B7075D
:109990000020860693874710B69798B385473E8583
:1099A000F240624405618280411122C60008B7E797
:1099B00000E03707EFBE13070708B8C701A03971E9
:1099C00006DE22DC80002326A4FCA30704FE1DA0E3
:1099D0008347F4FE0327C4FC3E978347F4FE182315
:1099E000930604FFB6972384E7FE8347F4FE8507BA
:1099F000A307F4FE0347F4FE9547E3FBE7FC832748
:109A0000C4FC89079C23A20713970701418783277A
:109A1000C4FC85079C23C207C187D98F2316F4FE97
:109A20008327C4FC91079C23A20713970701418752
:109A30008327C4FC8D079C23C207C187D98F2315B8
:109A4000F4FE8317C4FE13D7F701BA978587231452
:109A5000F4FE0357C4FE835784FEB307F740C207E2
:109A6000C1832313F4FE8317A4FE13D7F701BA971B
:109A700085872312F4FE0357A4FE835744FEB307E1
:109A8000F740C207C1832311F4FE835764FE93F7A6
:109A9000F70FA30CF4FC831764FEA187C207C187EC
:109AA00093F7F70F230DF4FC835724FE93F7F70F7A
:109AB000A30DF4FC831724FEA187C207C18793F787
:109AC000F70F230EF4FC930784FD3E85592D831771
:109AD00084FE81E7831744FEA9C7835784FE93F76A
:109AE000F70FA30CF4FC831784FEA187C207C1877C
:109AF00093F7F70F230DF4FC835744FE93F7F70F0A
:109B0000A30DF4FC831744FEA187C207C18793F716
:109B1000F70F230EF4FCA30E04FC930784FD3E858F
:109B200089250100F2506254216182801D7186CE28
:109B3000A2CC801083C7918393F7F70FB5CF8947E5
:109B40002306F4FA9147A306F4FA83C7418393F7F7
:109B5000F70F2307F4FA83C7D18793F7F70FA3070B
:109B6000F4FA83C7518393F7F70F2308F4FA83C7F6
:109B7000618393F7F70FA308F4FA83C7718393F710
:109B8000F70F2309F4FA83C7818393F7F70FA3092B
:109B9000F4FA9307C4FAA1071306900381453E85A2
:109BA000EFB00FE29307C4FA930510043E85EF006F
:109BB000207DA38C018211A00100F640664425613E
:109BC0008280411106C622C40008EF00D026EF2093
:109BD000102AEFE08F8DEFB05FC683C7D18793F770
:109BE000F70F99E795671385B730EFD0BFE915A850
:109BF00083C7D18713F7F70F85476318F700956779
:109C00001385B740EFD01FE829A883C7D18713F782
:109C1000F70F89476317F70095671385B750EFD0A3
:109C20007FE6EFE0EF8B81460146F16793850720E1
:109C30000545EFE0AFD8EFC08F8A0545EFC08FB282
:109C4000EFF06FB383C7818713F7F70F9307800C8B
:109C500063F7E7004920238C0186EFF0DF80EFE017
:109C60009FDEEFE05F9CEFF07FEC83C7A18593F769
:109C7000F70FB1CFB727002083C747E693F7F70F59
:109C80003E85EFF00FE4AA87FD8B13F7F70FB72798
:109C900000202382E7E683C7F18793F7F70F99E760
:109CA000B7270020138547E66D2939A0B727002084
:109CB000138547E6EFF0BFD0B7270020938747E62C
:109CC000FC2313F7F70FA38CE184238D0184C92BA8
:109CD000EF00007F85BF797106D622D4001883C7B4
:109CE000C18713F7F70F95476306F746EFF01FE4B8
:109CF00083C7C18793F7F70F3E87B727002023A4B8
:109D0000E7FA238E0186B7270020938787FADC4382
:109D100063880724B7270020938787FAD8378947B5
:109D20006310F722B7270020938787FA0947D8B72F
:109D3000B7270020938787FAD83F93070004631062
:109D4000F70283C7F18713F7F70F85476319F70009
:109D5000B7270020938787FA130700F8D8BFFD576D
:109D60002317F4FEA30604FE41A00347D4FEB72741
:109D70000020938747F6BA979C23A2071397070101
:109D800041878317E4FEB98FC207C1872317F4FE0A
:109D9000230604FE81A08317E4FE63D107028357E4
:109DA000E4FE8607139707014187856793871702AB
:109DB000B98FC207C187C207C18331A08357E4FEB0
:109DC0008607C207C1832317F4FE8347C4FE8507B5
:109DD0002306F4FE0347C4FE9D47E3FEE7FA8347EC
:109DE000D4FE8507A306F4FE0347D4FE93070004C0
:109DF000E3FDE7F68357E4FEA183C207C18313F7AF
:109E0000F70F83C7B18593F7F70F631EF7008357EA
:109E1000E4FE13F7F70F83C7C18593F7F70F6314B9
:109E2000F700854711A08147A303F4FE834774FE22
:109E300089CB93051004B7270020138557FB89238E
:109E400001A20100B717002093878723BC2B93F74B
:109E5000F70FEDFBB757004093870780DE2B139772
:109E600007014183B7570040938707801377F7F7BF
:109E700042074183DAAB8145B70702401385C7012A
:109E8000EF00506F232E04FC232004FE230E04FC5D
:109E9000C547A30EF4FC8547230FF4FCA30504FE7D
:109EA000230504FE15A08347A4FE130704FFBA97F9
:109EB00003C7C7FE8347B4FEBA97A305F4FE8347E2
:109EC000A4FE85072305F4FE0347A4FE9947E3FC9F
:109ED000E7FC8347B4FEA301F4FEA30404FE89A0BB
:109EE000010093050008B757004013850780EF2055
:109EF0000071AA87FDD7834794FE130704FFBA9722
:109F000083C7C7FEC207C183BE85B757004013850C
:109F10000780EF20006C834794FE8507A304F4FEBE
:109F2000034794FE9D47E3FDE7FA01009305000413
:109F3000B757004013850780EF20606CAA87FDD7D4
:109F4000B7270020938787FA0547D8A7B7270020AF
:109F500023A407FAB7270020938787FA23A20700D4
:109F6000B727002083A787FA19476367F71E13975F
:109F70002700B567938787BBBA979C4382871306F0
:109F80000004B7270020938547F6B72700201385E4
:109F900057FBEF20B002230404FEA1A8834784FEF0
:109FA000B50793961700834784FE372700201307D1
:109FB00047F6369718238607930604FFB697238043
:109FC000E7FE834784FE86079386B701834784FEB6
:109FD00037270020130747F636971823860793067E
:109FE00004FFB697A380E7FE834784FE850723041A
:109FF000F4FE034784FE9547E3F2E7FA93078008EF
:10A0000073B007800F100000B7070020834604FDDF
:10A01000834F14FD034F24FD834E34FD034E44FD56
:10A02000034354FD834864FD034874FD034584FDE8
:10A03000834594FD0346A4FD0347B4FD2382D71056
:10A0400093864710A380F601938647102381E6018B
:10A0500093864710A381D601938647102382C601B9
:10A0600093864710A38266009386471023831601C8
:10A0700093864710A38306019386471088A693868C
:10A0800047108CB693864710B0A693874710B8B791
:10A090009307800873A00780B727002023A407FA3E
:10A0A000B7270020938787FA0547D8C37DA0B72735
:10A0B0000020938787FA0947D8B7B72700209387EE
:10A0C00087FA0D47F8A703C79185B7270020938724
:10A0D00087FAF8B703C79185B7270020938787FAD7
:10A0E00098ABB727002023A407FAB727002093874F
:10A0F00087FA0547D8C395A083C7D18793F7F70F91
:10A1000081453E85EFB00FCAEFB02FF3B72700208F
:10A1100023A407FA99A0EFB09F86B727002023A4B5
:10A1200007FA25A883C7D18793F7F70F85453E85A2
:10A13000EFB04FC72945EF202060B727002023A4A8
:10A1400007FA0547238FE18609A8B727002023A433
:10A1500007FA21A0010011A00100B250225445616C
:10A160008280797106D622D40018232EA4FCB7274A
:10A170000020938787FF83C7A72513F7F70F93075F
:10A1800040066319F704B7270020938787FF83C72A
:10A19000972593F7F70F1387170093074006B367C8
:10A1A000F70213F7F70FB7270020938787FFA38CD9
:10A1B000E724B7270020938787FF83C7A72593F756
:10A1C000F70FFD1713F7F70FB7270020938787FFC7
:10A1D000238DE724A30704FE91A08347F4FE032701
:10A1E000C4FDBA9737270020130787FF0347872549
:10A1F0001377F70FBA858346F4FE9823372600209D
:10A20000AE878607AE978607130686FFB297B69786
:10A2100098A38347F4FE8507A307F4FE0347F4FEE3
:10A220009547E3FCE7FAB7270020938787FF83C7AA
:10A23000872593F7F70F1387170093074006B36737
:10A24000F70213F7F70FB7270020938787FF238CB8
:10A25000E724B7270020938787FF83C7A72593F7B5
:10A26000F70F850713F7F70FB7270020938787FFAE
:10A27000238DE724B7270020938787FF83C7B7255F
:10A2800093F7F70F89EBB7270020938787FF0547E0
:10A29000A38DE72431200100B25022544561828011
:10A2A000011106CE22CC0010B7270020938787FF2C
:10A2B00083C7A72593F7F70F81EBB7270020938774
:10A2C00087FFA38D07244DA8B7270020938787FF1A
:10A2D00083C797252307F4FEA30704FE35A8034789
:10A2E000E4FE0346F4FE8346F4FEB7250020BA8759
:10A2F0008607BA978607138785FFBA97B2979C237C
:10A3000013F7F70F930704FFB697238CE7FE8347F5
:10A31000F4FE8507A307F4FE0347F4FE9547E3F038
:10A32000E7FC930784FE85461946BE850545EFB0D8
:10A330001FD4AA87B1E38347E4FE1387170093076E
:10A340004006B367F70213F7F70FB727002093878C
:10A3500087FFA38CE724B7270020938787FF83C755
:10A36000A72593F7F70FFD1713F7F70FB72700206F
:10A37000938787FF238DE724F24062440561828042
:10A38000797122D60018232EA4FCAE87A30DF4FC0D
:10A39000B72700209387472583C7A72013F7F70F18
:10A3A000A147631CF704B72700209387472583C77D
:10A3B000972093F7F70F138717009357F741F5830B
:10A3C0003E971D8BB307F74013F7F70FB727002011
:10A3D00093874725A384E720B72700209387472545
:10A3E00083C7A72093F7F70FFD1713F7F70FB727CA
:10A3F0000020938747252385E720B72700209387F0
:10A40000472583C7872093F7F70F3E87BA879A07B8
:10A41000BA973727002013074725BA972324F4FE5D
:10A42000A30704FE15A80347F4FE8347B4FD637930
:10A43000F7008347F4FE0327C4FDBA979C2311A0BD
:10A4400081470347F4FE832684FE36971CA3834787
:10A45000F4FE8507A307F4FE0347F4FE9307000408
:10A46000E3F3E7FCB72700209387472583C78720BE
:10A4700093F7F70F138717009357F741F5833E972C
:10A480001D8BB307F74013F7F70FB727002093870B
:10A4900047252384E720B72700209387472583C7D4
:10A4A000A72093F7F70F850713F7F70FB7270020BB
:10A4B000938747252385E720010032544561828038
:10A4C0001D7186CEA2CC8010B72700209387472528
:10A4D00083C7A72093F7F70FD5CFB727002093871F
:10A4E000472583C797202307F4FEA30704FE2DA862
:10A4F0000347E4FE0346F4FE8346F4FEB72500203E
:10A50000BA879A07BA9713874525BA97B2979C23BB
:10A5100013F7F70F930704FFB697238EE7FA8347E5
:10A52000F4FE8507A307F4FE0347F4FE9307000437
:10A53000E3F0E7FC9307C4FA854613061004BE85D2
:10A540001145EFB0DFB2AA87B9E78347E4FE13876E
:10A5500017009357F741F5833E971D8BB307F740DC
:10A5600013F7F70FB727002093874725A384E72029
:10A57000B72700209387472583C7A72093F7F70FB6
:10A58000FD1713F7F70FB72700209387472523857B
:10A59000E72011A00100F640664425618280411148
:10A5A00006C622C40008B71702409843B7170240F6
:10A5B0001367170098C3B7170240D443B717024078
:10A5C0003707FFF0758FD8C3B71702409443B7170A
:10A5D00002403707F7FE7D17758F98C3B717024003
:10A5E0009443B71702403707FCFF7D17758F98C358
:10A5F000B7170240D443B7170240370701FF7D1752
:10A60000758FD8C3B71702409443B7170240370776
:10A6100000EC7D17758F98C3B71702403707FF000E
:10A6200098C7B717024023A60702E92A0100B240E3
:10A63000224441018280011122CE0010232204FE17
:10A64000232604FE232004FE232404FEB717024021
:10A65000DC43B18B2322F4FE032744FE91476304BD
:10A66000F702032744FEA1476308F702832744FE4D
:10A6700063900714B707002037177A0013070720E5
:10A6800023AAE71281A2B707002037177A00130721
:10A69000072023AAE7123DA2B7170240D843B70705
:10A6A0003C00F98F2326F4FEB7170240D843C16758
:10A6B000F98F2320F4FE8327C4FEC983890723264C
:10A6C000F4FE0327C4FE89476315F700C947232614
:10A6D000F4FE0327C4FEBD476318F700B5472326E1
:10A6E000F4FE85472324F4FE0327C4FEC147631507
:10A6F000F700BD472326F4FE0327C4FEC5476315B4
:10A70000F700C1472326F4FE832704FEB1E3B747D1
:10A710000240938707809C43C18B91CF0327C4FEDF
:10A72000B7177A00938707203307F702B70700208F
:10A7300023AAE712B1A80327C4FEB7173D009387E9
:10A7400007903307F702B707002023AAE71289A072
:10A75000B7170240D843B7070200F98F91CF0327FC
:10A76000C4FEB7173D00938707903307F702B7077A
:10A77000002023AAE71229A80327C4FEB7177A00EE
:10A78000938707203307F702B707002023AAE712B1
:10A79000032784FE85476316F702B707002083A7C7
:10A7A000471313D71700B707002023AAE71211A8F1
:10A7B000B707002037177A001307072023AAE712EC
:10A7C00011A00100B7170240DC43918313F7F70093
:10A7D000B707002093870711BA979C2393F7F70FC9
:10A7E0002322F4FEB707002003A74713832744FE64
:10A7F0003357F700B707002023AAE712010072447D
:10A8000005618280411106C622C400083120010082
:10A81000B240224441018280011122CE0010232641
:10A8200004FE232404FEB71702409443B7170240E6
:10A830004167558F98C3B71702409843B707020086
:10A84000F98F2324F4FE8327C4FE85072326F4FE14
:10A85000832784FE91E70327C4FE8567E31DF7FC89
:10A86000B71702409843B7070200F98F89C7854799
:10A870002324F4FE19A0232404FE032784FE854725
:10A880006311F70A37170240B71702405843D8C37D
:10A8900037170240B71702405843D8C3B7170240D2
:10A8A000D843B717024013670740D8C3B717024011
:10A8B000D443B71702403707C1FF7D17758FD8C340
:10A8C000B7170240D443B71702404167558FD8C32A
:10A8D000B71702409443B717024037070001558F5E
:10A8E00098C30100B71702409843B7070002F98FD9
:10A8F000F5DBB7170240D843B7170240719BD8C3A6
:10A90000B7170240D843B717024013672700D8C3D0
:10A910000100B7170240DC4313F7C700A147E31A51
:10A92000F7FE010072440561828001A09761FF1F5C
:10A930009381410017D1FF1F1301C16C172500003F
:10A94000130585299755FF1F9385C56B1386818154
:10A9500063FAC5008322050023A055001105910567
:10A96000E3EAC5FE138581819785FF1F938585AF37
:10A970006377B500232005001105E36DB5FEFD42A8
:10A98000739002BCAD4273904280B7620000938224
:10A9900082087390023097A2FFFF9382E26693E2EF
:10A9A000320073905230EFF09FBF97F2FFFF938217
:10A9B00082217390123473002030011122CE0010D6
:10A9C0002326A4FE8327C4FE9843C167F9177D8F11
:10A9D0008327C4FE98C38327C4FE23A007008327D0
:10A9E000C4FE23A207008327C4FE23A407008327F5
:10A9F000C4FE23A607000327C4FEB7070240A10731
:10AA0000631BF700B7070240D843B707024013673C
:10AA1000F700D8C345AC0327C4FEB7070240F107CF
:10AA2000631BF700B7070240D843B707024013671C
:10AA3000070FD8C341AC0327C4FEB7070240938772
:10AA40000703631DF700B7070240D443B70702406E
:10AA50000567130707F0558FD8C3ADA40327C4FEBD
:10AA6000B707024093874704631BF700B70702400C
:10AA7000D443B70702403D67558FD8C3A1A403272D
:10AA8000C4FEB707024093878705631CF700B7072A
:10AA90000240D443B707024037070F00558FD8C391
:10AAA00015A40327C4FEB70702409387C706631C9B
:10AAB000F700B7070240D443B70702403707F0005A
:10AAC000558FD8C301A40327C4FEB707024093875C
:10AAD0000708631CF700B7070240D443B7070240DA
